{
  "contractName": "Marketplace",
  "abi": [
    {
      "inputs": [],
      "payable": false,
      "stateMutability": "nonpayable",
      "type": "constructor"
    },
    {
      "anonymous": false,
      "inputs": [
        {
          "indexed": false,
          "internalType": "uint256",
          "name": "id",
          "type": "uint256"
        },
        {
          "indexed": false,
          "internalType": "string",
          "name": "name",
          "type": "string"
        },
        {
          "indexed": false,
          "internalType": "string",
          "name": "city",
          "type": "string"
        },
        {
          "indexed": false,
          "internalType": "uint256",
          "name": "phone",
          "type": "uint256"
        }
      ],
      "name": "FarmerRegisterd",
      "type": "event"
    },
    {
      "anonymous": false,
      "inputs": [
        {
          "indexed": false,
          "internalType": "uint256",
          "name": "id",
          "type": "uint256"
        },
        {
          "indexed": false,
          "internalType": "uint256",
          "name": "farmerID",
          "type": "uint256"
        },
        {
          "indexed": false,
          "internalType": "string",
          "name": "name",
          "type": "string"
        },
        {
          "indexed": false,
          "internalType": "string",
          "name": "city",
          "type": "string"
        },
        {
          "indexed": false,
          "internalType": "uint256",
          "name": "price",
          "type": "uint256"
        },
        {
          "indexed": false,
          "internalType": "address payable",
          "name": "owner",
          "type": "address"
        },
        {
          "indexed": false,
          "internalType": "bool",
          "name": "purchased",
          "type": "bool"
        },
        {
          "indexed": false,
          "internalType": "bool",
          "name": "approved",
          "type": "bool"
        }
      ],
      "name": "ProductApproved",
      "type": "event"
    },
    {
      "anonymous": false,
      "inputs": [
        {
          "indexed": false,
          "internalType": "uint256",
          "name": "id",
          "type": "uint256"
        },
        {
          "indexed": false,
          "internalType": "uint256",
          "name": "farmerID",
          "type": "uint256"
        },
        {
          "indexed": false,
          "internalType": "string",
          "name": "name",
          "type": "string"
        },
        {
          "indexed": false,
          "internalType": "string",
          "name": "city",
          "type": "string"
        },
        {
          "indexed": false,
          "internalType": "uint256",
          "name": "price",
          "type": "uint256"
        },
        {
          "indexed": false,
          "internalType": "address payable",
          "name": "owner",
          "type": "address"
        },
        {
          "indexed": false,
          "internalType": "bool",
          "name": "purchased",
          "type": "bool"
        },
        {
          "indexed": false,
          "internalType": "bool",
          "name": "approved",
          "type": "bool"
        }
      ],
      "name": "ProductCreated",
      "type": "event"
    },
    {
      "anonymous": false,
      "inputs": [
        {
          "indexed": false,
          "internalType": "uint256",
          "name": "id",
          "type": "uint256"
        },
        {
          "indexed": false,
          "internalType": "uint256",
          "name": "farmerID",
          "type": "uint256"
        },
        {
          "indexed": false,
          "internalType": "string",
          "name": "name",
          "type": "string"
        },
        {
          "indexed": false,
          "internalType": "string",
          "name": "city",
          "type": "string"
        },
        {
          "indexed": false,
          "internalType": "uint256",
          "name": "price",
          "type": "uint256"
        },
        {
          "indexed": false,
          "internalType": "address payable",
          "name": "owner",
          "type": "address"
        },
        {
          "indexed": false,
          "internalType": "bool",
          "name": "purchased",
          "type": "bool"
        },
        {
          "indexed": false,
          "internalType": "bool",
          "name": "approved",
          "type": "bool"
        }
      ],
      "name": "ProductPurchased",
      "type": "event"
    },
    {
      "anonymous": false,
      "inputs": [
        {
          "indexed": false,
          "internalType": "uint256",
          "name": "id",
          "type": "uint256"
        },
        {
          "indexed": false,
          "internalType": "string",
          "name": "name",
          "type": "string"
        },
        {
          "indexed": false,
          "internalType": "string",
          "name": "city",
          "type": "string"
        }
      ],
      "name": "QTestingRegisterd",
      "type": "event"
    },
    {
      "constant": true,
      "inputs": [],
      "name": "farmerCount",
      "outputs": [
        {
          "internalType": "uint256",
          "name": "",
          "type": "uint256"
        }
      ],
      "payable": false,
      "stateMutability": "view",
      "type": "function"
    },
    {
      "constant": true,
      "inputs": [
        {
          "internalType": "uint256",
          "name": "",
          "type": "uint256"
        }
      ],
      "name": "farmers",
      "outputs": [
        {
          "internalType": "uint256",
          "name": "id",
          "type": "uint256"
        },
        {
          "internalType": "string",
          "name": "name",
          "type": "string"
        },
        {
          "internalType": "string",
          "name": "city",
          "type": "string"
        },
        {
          "internalType": "uint256",
          "name": "phone",
          "type": "uint256"
        }
      ],
      "payable": false,
      "stateMutability": "view",
      "type": "function"
    },
    {
      "constant": true,
      "inputs": [],
      "name": "name",
      "outputs": [
        {
          "internalType": "string",
          "name": "",
          "type": "string"
        }
      ],
      "payable": false,
      "stateMutability": "view",
      "type": "function"
    },
    {
      "constant": true,
      "inputs": [],
      "name": "productCount",
      "outputs": [
        {
          "internalType": "uint256",
          "name": "",
          "type": "uint256"
        }
      ],
      "payable": false,
      "stateMutability": "view",
      "type": "function"
    },
    {
      "constant": true,
      "inputs": [
        {
          "internalType": "uint256",
          "name": "",
          "type": "uint256"
        }
      ],
      "name": "products",
      "outputs": [
        {
          "internalType": "uint256",
          "name": "id",
          "type": "uint256"
        },
        {
          "internalType": "uint256",
          "name": "farmerID",
          "type": "uint256"
        },
        {
          "internalType": "string",
          "name": "name",
          "type": "string"
        },
        {
          "internalType": "string",
          "name": "city",
          "type": "string"
        },
        {
          "internalType": "uint256",
          "name": "price",
          "type": "uint256"
        },
        {
          "internalType": "address payable",
          "name": "owner",
          "type": "address"
        },
        {
          "internalType": "bool",
          "name": "purchased",
          "type": "bool"
        },
        {
          "internalType": "bool",
          "name": "approved",
          "type": "bool"
        }
      ],
      "payable": false,
      "stateMutability": "view",
      "type": "function"
    },
    {
      "constant": true,
      "inputs": [],
      "name": "qtCount",
      "outputs": [
        {
          "internalType": "uint256",
          "name": "",
          "type": "uint256"
        }
      ],
      "payable": false,
      "stateMutability": "view",
      "type": "function"
    },
    {
      "constant": true,
      "inputs": [
        {
          "internalType": "uint256",
          "name": "",
          "type": "uint256"
        }
      ],
      "name": "qtestings",
      "outputs": [
        {
          "internalType": "uint256",
          "name": "id",
          "type": "uint256"
        },
        {
          "internalType": "string",
          "name": "name",
          "type": "string"
        },
        {
          "internalType": "string",
          "name": "city",
          "type": "string"
        }
      ],
      "payable": false,
      "stateMutability": "view",
      "type": "function"
    },
    {
      "constant": false,
      "inputs": [
        {
          "internalType": "string",
          "name": "_name",
          "type": "string"
        },
        {
          "internalType": "uint256",
          "name": "_phone",
          "type": "uint256"
        },
        {
          "internalType": "string",
          "name": "_city",
          "type": "string"
        }
      ],
      "name": "farmerRegister",
      "outputs": [],
      "payable": false,
      "stateMutability": "nonpayable",
      "type": "function"
    },
    {
      "constant": false,
      "inputs": [
        {
          "internalType": "string",
          "name": "_name",
          "type": "string"
        },
        {
          "internalType": "string",
          "name": "_city",
          "type": "string"
        }
      ],
      "name": "qtestingRegister",
      "outputs": [],
      "payable": false,
      "stateMutability": "nonpayable",
      "type": "function"
    },
    {
      "constant": false,
      "inputs": [
        {
          "internalType": "uint256",
          "name": "_farmerid",
          "type": "uint256"
        },
        {
          "internalType": "string",
          "name": "_name",
          "type": "string"
        },
        {
          "internalType": "uint256",
          "name": "_price",
          "type": "uint256"
        },
        {
          "internalType": "string",
          "name": "_city",
          "type": "string"
        }
      ],
      "name": "createProduct",
      "outputs": [],
      "payable": false,
      "stateMutability": "nonpayable",
      "type": "function"
    },
    {
      "constant": false,
      "inputs": [
        {
          "internalType": "uint256",
          "name": "_id",
          "type": "uint256"
        },
        {
          "internalType": "uint256",
          "name": "_qtprice",
          "type": "uint256"
        }
      ],
      "name": "qtapproval",
      "outputs": [],
      "payable": true,
      "stateMutability": "payable",
      "type": "function"
    },
    {
      "constant": false,
      "inputs": [
        {
          "internalType": "uint256",
          "name": "_id",
          "type": "uint256"
        }
      ],
      "name": "purchaseProduct",
      "outputs": [],
      "payable": true,
      "stateMutability": "payable",
      "type": "function"
    }
  ],
  "bytecode": "0x60806040526000600155600060025560006003553480156200002057600080fd5b506040518060400160405280601281526020017f4661726d6572204d61726b6574706c6163650000000000000000000000000000815250600090805190602001906200006e92919062000075565b5062000124565b828054600181600116156101000203166002900490600052602060002090601f016020900481019282601f10620000b857805160ff1916838001178555620000e9565b82800160010185558215620000e9579182015b82811115620000e8578251825591602001919060010190620000cb565b5b509050620000f89190620000fc565b5090565b6200012191905b808211156200011d57600081600090555060010162000103565b5090565b90565b6121ba80620001346000396000f3fe6080604052600436106100a75760003560e01c8063b882b37911610064578063b882b379146105aa578063bd45b39714610709578063c5a7cc6114610734578063c75955941461076c578063da2f8fa5146108df578063e0f6ef8714610a06576100a7565b806306fdde03146100ac57806338e76a031461013c5780633978894f1461016a5780634ce6e47b146101955780637acc0b20146102fe5780638afdd6691461047c575b600080fd5b3480156100b857600080fd5b506100c1610a31565b6040518080602001828103825283818151815260200191508051906020019080838360005b838110156101015780820151818401526020810190506100e6565b50505050905090810190601f16801561012e5780820380516001836020036101000a031916815260200191505b509250505060405180910390f35b6101686004803603602081101561015257600080fd5b8101908080359060200190929190505050610acf565b005b34801561017657600080fd5b5061017f611076565b6040518082815260200191505060405180910390f35b3480156101a157600080fd5b506102fc600480360360608110156101b857600080fd5b81019080803590602001906401000000008111156101d557600080fd5b8201836020820111156101e757600080fd5b8035906020019184600183028401116401000000008311171561020957600080fd5b91908080601f016020809104026020016040519081016040528093929190818152602001838380828437600081840152601f19601f820116905080830192505050505050509192919290803590602001909291908035906020019064010000000081111561027657600080fd5b82018360208201111561028857600080fd5b803590602001918460018302840111640100000000831117156102aa57600080fd5b91908080601f016020809104026020016040519081016040528093929190818152602001838380828437600081840152601f19601f82011690508083019250505050505050919291929050505061107c565b005b34801561030a57600080fd5b506103376004803603602081101561032157600080fd5b8101908080359060200190929190505050611260565b6040518089815260200188815260200180602001806020018781526020018673ffffffffffffffffffffffffffffffffffffffff1673ffffffffffffffffffffffffffffffffffffffff1681526020018515151515815260200184151515158152602001838103835289818151815260200191508051906020019080838360005b838110156103d35780820151818401526020810190506103b8565b50505050905090810190601f1680156104005780820380516001836020036101000a031916815260200191505b50838103825288818151815260200191508051906020019080838360005b8381101561043957808201518184015260208101905061041e565b50505050905090810190601f1680156104665780820380516001836020036101000a031916815260200191505b509a505050505050505050505060405180910390f35b34801561048857600080fd5b506104b56004803603602081101561049f57600080fd5b8101908080359060200190929190505050611412565b604051808581526020018060200180602001848152602001838103835286818151815260200191508051906020019080838360005b838110156105055780820151818401526020810190506104ea565b50505050905090810190601f1680156105325780820380516001836020036101000a031916815260200191505b50838103825285818151815260200191508051906020019080838360005b8381101561056b578082015181840152602081019050610550565b50505050905090810190601f1680156105985780820380516001836020036101000a031916815260200191505b50965050505050505060405180910390f35b3480156105b657600080fd5b50610707600480360360408110156105cd57600080fd5b81019080803590602001906401000000008111156105ea57600080fd5b8201836020820111156105fc57600080fd5b8035906020019184600183028401116401000000008311171561061e57600080fd5b91908080601f016020809104026020016040519081016040528093929190818152602001838380828437600081840152601f19601f8201169050808301925050505050505091929192908035906020019064010000000081111561068157600080fd5b82018360208201111561069357600080fd5b803590602001918460018302840111640100000000831117156106b557600080fd5b91908080601f016020809104026020016040519081016040528093929190818152602001838380828437600081840152601f19601f820116905080830192505050505050509192919290505050611572565b005b34801561071557600080fd5b5061071e611730565b6040518082815260200191505060405180910390f35b61076a6004803603604081101561074a57600080fd5b810190808035906020019092919080359060200190929190505050611736565b005b34801561077857600080fd5b506108dd6004803603608081101561078f57600080fd5b8101908080359060200190929190803590602001906401000000008111156107b657600080fd5b8201836020820111156107c857600080fd5b803590602001918460018302840111640100000000831117156107ea57600080fd5b91908080601f016020809104026020016040519081016040528093929190818152602001838380828437600081840152601f19601f820116905080830192505050505050509192919290803590602001909291908035906020019064010000000081111561085757600080fd5b82018360208201111561086957600080fd5b8035906020019184600183028401116401000000008311171561088b57600080fd5b91908080601f016020809104026020016040519081016040528093929190818152602001838380828437600081840152601f19601f820116905080830192505050505050509192919290505050611c21565b005b3480156108eb57600080fd5b506109186004803603602081101561090257600080fd5b8101908080359060200190929190505050611f21565b604051808481526020018060200180602001838103835285818151815260200191508051906020019080838360005b83811015610962578082015181840152602081019050610947565b50505050905090810190601f16801561098f5780820380516001836020036101000a031916815260200191505b50838103825284818151815260200191508051906020019080838360005b838110156109c85780820151818401526020810190506109ad565b50505050905090810190601f1680156109f55780820380516001836020036101000a031916815260200191505b509550505050505060405180910390f35b348015610a1257600080fd5b50610a1b61207b565b6040518082815260200191505060405180910390f35b60008054600181600116156101000203166002900480601f016020809104026020016040519081016040528092919081815260200182805460018160011615610100020316600290048015610ac75780601f10610a9c57610100808354040283529160200191610ac7565b820191906000526020600020905b815481529060010190602001808311610aaa57829003601f168201915b505050505081565b610ad7612081565b60046000838152602001908152602001600020604051806101000160405290816000820154815260200160018201548152602001600282018054600181600116156101000203166002900480601f016020809104026020016040519081016040528092919081815260200182805460018160011615610100020316600290048015610ba35780601f10610b7857610100808354040283529160200191610ba3565b820191906000526020600020905b815481529060010190602001808311610b8657829003601f168201915b50505050508152602001600382018054600181600116156101000203166002900480601f016020809104026020016040519081016040528092919081815260200182805460018160011615610100020316600290048015610c455780601f10610c1a57610100808354040283529160200191610c45565b820191906000526020600020905b815481529060010190602001808311610c2857829003601f168201915b50505050508152602001600482015481526020016005820160009054906101000a900473ffffffffffffffffffffffffffffffffffffffff1673ffffffffffffffffffffffffffffffffffffffff1673ffffffffffffffffffffffffffffffffffffffff1681526020016005820160149054906101000a900460ff161515151581526020016005820160159054906101000a900460ff161515151581525050905060008160a00151905060008260000151118015610d095750600154826000015111155b610d1257600080fd5b8160800151341015610d2357600080fd5b8160c0015115610d3257600080fd5b3373ffffffffffffffffffffffffffffffffffffffff168173ffffffffffffffffffffffffffffffffffffffff161415610d6b57600080fd5b338260a0019073ffffffffffffffffffffffffffffffffffffffff16908173ffffffffffffffffffffffffffffffffffffffff168152505060018260c0019015159081151581525050816004600085815260200190815260200160002060008201518160000155602082015181600101556040820151816002019080519060200190610df89291906120e0565b506060820151816003019080519060200190610e159291906120e0565b506080820151816004015560a08201518160050160006101000a81548173ffffffffffffffffffffffffffffffffffffffff021916908373ffffffffffffffffffffffffffffffffffffffff16021790555060c08201518160050160146101000a81548160ff02191690831515021790555060e08201518160050160156101000a81548160ff0219169083151502179055509050508073ffffffffffffffffffffffffffffffffffffffff166108fc349081150290604051600060405180830381858888f19350505050158015610ef0573d6000803e3d6000fd5b507ff134b9970ff7feab7d96f0d44356c469757429c8fb562f12ba6d95356f50f85e6001548360200151846040015185606001518660800151336001806040518089815260200188815260200180602001806020018781526020018673ffffffffffffffffffffffffffffffffffffffff1673ffffffffffffffffffffffffffffffffffffffff1681526020018515151515815260200184151515158152602001838103835289818151815260200191508051906020019080838360005b83811015610fc9578082015181840152602081019050610fae565b50505050905090810190601f168015610ff65780820380516001836020036101000a031916815260200191505b50838103825288818151815260200191508051906020019080838360005b8381101561102f578082015181840152602081019050611014565b50505050905090810190601f16801561105c5780820380516001836020036101000a031916815260200191505b509a505050505050505050505060405180910390a1505050565b60035481565b600083511161108a57600080fd5b600081511161109857600080fd5b600082116110a557600080fd5b60026000815480929190600101919050555060405180608001604052806002548152602001848152602001828152602001838152506005600060025481526020019081526020016000206000820151816000015560208201518160010190805190602001906111159291906120e0565b5060408201518160020190805190602001906111329291906120e0565b50606082015181600301559050507fc1098c35f8a0a2b8de471ceb6f7f4724da6bcb31718127ff361c207b1b79da2e600254848385604051808581526020018060200180602001848152602001838103835286818151815260200191508051906020019080838360005b838110156111b757808201518184015260208101905061119c565b50505050905090810190601f1680156111e45780820380516001836020036101000a031916815260200191505b50838103825285818151815260200191508051906020019080838360005b8381101561121d578082015181840152602081019050611202565b50505050905090810190601f16801561124a5780820380516001836020036101000a031916815260200191505b50965050505050505060405180910390a1505050565b6004602052806000526040600020600091509050806000015490806001015490806002018054600181600116156101000203166002900480601f0160208091040260200160405190810160405280929190818152602001828054600181600116156101000203166002900480156113185780601f106112ed57610100808354040283529160200191611318565b820191906000526020600020905b8154815290600101906020018083116112fb57829003601f168201915b505050505090806003018054600181600116156101000203166002900480601f0160208091040260200160405190810160405280929190818152602001828054600181600116156101000203166002900480156113b65780601f1061138b576101008083540402835291602001916113b6565b820191906000526020600020905b81548152906001019060200180831161139957829003601f168201915b5050505050908060040154908060050160009054906101000a900473ffffffffffffffffffffffffffffffffffffffff16908060050160149054906101000a900460ff16908060050160159054906101000a900460ff16905088565b6005602052806000526040600020600091509050806000015490806001018054600181600116156101000203166002900480601f0160208091040260200160405190810160405280929190818152602001828054600181600116156101000203166002900480156114c45780601f10611499576101008083540402835291602001916114c4565b820191906000526020600020905b8154815290600101906020018083116114a757829003601f168201915b505050505090806002018054600181600116156101000203166002900480601f0160208091040260200160405190810160405280929190818152602001828054600181600116156101000203166002900480156115625780601f1061153757610100808354040283529160200191611562565b820191906000526020600020905b81548152906001019060200180831161154557829003601f168201915b5050505050908060030154905084565b600082511161158057600080fd5b600081511161158e57600080fd5b60036000815480929190600101919050555060405180606001604052806003548152602001838152602001828152506006600060035481526020019081526020016000206000820151816000015560208201518160010190805190602001906115f89291906120e0565b5060408201518160020190805190602001906116159291906120e0565b509050507f1ceef29ea72964130e5d6530c6783cc06a565a96cc1c2e5ae688e816d16caab56003548383604051808481526020018060200180602001838103835285818151815260200191508051906020019080838360005b8381101561168957808201518184015260208101905061166e565b50505050905090810190601f1680156116b65780820380516001836020036101000a031916815260200191505b50838103825284818151815260200191508051906020019080838360005b838110156116ef5780820151818401526020810190506116d4565b50505050905090810190601f16801561171c5780820380516001836020036101000a031916815260200191505b509550505050505060405180910390a15050565b60025481565b61173e612081565b60046000848152602001908152602001600020604051806101000160405290816000820154815260200160018201548152602001600282018054600181600116156101000203166002900480601f01602080910402602001604051908101604052809291908181526020018280546001816001161561010002031660029004801561180a5780601f106117df5761010080835404028352916020019161180a565b820191906000526020600020905b8154815290600101906020018083116117ed57829003601f168201915b50505050508152602001600382018054600181600116156101000203166002900480601f0160208091040260200160405190810160405280929190818152602001828054600181600116156101000203166002900480156118ac5780601f10611881576101008083540402835291602001916118ac565b820191906000526020600020905b81548152906001019060200180831161188f57829003601f168201915b50505050508152602001600482015481526020016005820160009054906101000a900473ffffffffffffffffffffffffffffffffffffffff1673ffffffffffffffffffffffffffffffffffffffff1673ffffffffffffffffffffffffffffffffffffffff1681526020016005820160149054906101000a900460ff161515151581526020016005820160159054906101000a900460ff1615151515815250509050600081600001511180156119675750600154816000015111155b61197057600080fd5b60018160e001901515908115158152505060006002826080015184018161199357fe5b049050808260800181815250508160046000868152602001908152602001600020600082015181600001556020820151816001015560408201518160020190805190602001906119e49291906120e0565b506060820151816003019080519060200190611a019291906120e0565b506080820151816004015560a08201518160050160006101000a81548173ffffffffffffffffffffffffffffffffffffffff021916908373ffffffffffffffffffffffffffffffffffffffff16021790555060c08201518160050160146101000a81548160ff02191690831515021790555060e08201518160050160156101000a81548160ff0219169083151502179055509050507fdcffe8507d6bfbb897d917f443dbab12be80ec3f47bdd272226cbe689756fc8e60015483602001518460400151856060015186608001518760a00151600060016040518089815260200188815260200180602001806020018781526020018673ffffffffffffffffffffffffffffffffffffffff1673ffffffffffffffffffffffffffffffffffffffff1681526020018515151515815260200184151515158152602001838103835289818151815260200191508051906020019080838360005b83811015611b73578082015181840152602081019050611b58565b50505050905090810190601f168015611ba05780820380516001836020036101000a031916815260200191505b50838103825288818151815260200191508051906020019080838360005b83811015611bd9578082015181840152602081019050611bbe565b50505050905090810190601f168015611c065780820380516001836020036101000a031916815260200191505b509a505050505050505050505060405180910390a150505050565b6000835111611c2f57600080fd5b6000815111611c3d57600080fd5b60008211611c4a57600080fd5b60016000815480929190600101919050555060405180610100016040528060015481526020018581526020018481526020018281526020018381526020013373ffffffffffffffffffffffffffffffffffffffff1681526020016000151581526020016000151581525060046000600154815260200190815260200160002060008201518160000155602082015181600101556040820151816002019080519060200190611cf99291906120e0565b506060820151816003019080519060200190611d169291906120e0565b506080820151816004015560a08201518160050160006101000a81548173ffffffffffffffffffffffffffffffffffffffff021916908373ffffffffffffffffffffffffffffffffffffffff16021790555060c08201518160050160146101000a81548160ff02191690831515021790555060e08201518160050160156101000a81548160ff0219169083151502179055509050507f3bbd9823df2bc7b2c70ac60bfac8038fb836f258cc37e1a3cabd21d804ac7fc960015485858486336000806040518089815260200188815260200180602001806020018781526020018673ffffffffffffffffffffffffffffffffffffffff1673ffffffffffffffffffffffffffffffffffffffff1681526020018515151515815260200184151515158152602001838103835289818151815260200191508051906020019080838360005b83811015611e73578082015181840152602081019050611e58565b50505050905090810190601f168015611ea05780820380516001836020036101000a031916815260200191505b50838103825288818151815260200191508051906020019080838360005b83811015611ed9578082015181840152602081019050611ebe565b50505050905090810190601f168015611f065780820380516001836020036101000a031916815260200191505b509a505050505050505050505060405180910390a150505050565b6006602052806000526040600020600091509050806000015490806001018054600181600116156101000203166002900480601f016020809104026020016040519081016040528092919081815260200182805460018160011615610100020316600290048015611fd35780601f10611fa857610100808354040283529160200191611fd3565b820191906000526020600020905b815481529060010190602001808311611fb657829003601f168201915b505050505090806002018054600181600116156101000203166002900480601f0160208091040260200160405190810160405280929190818152602001828054600181600116156101000203166002900480156120715780601f1061204657610100808354040283529160200191612071565b820191906000526020600020905b81548152906001019060200180831161205457829003601f168201915b5050505050905083565b60015481565b6040518061010001604052806000815260200160008152602001606081526020016060815260200160008152602001600073ffffffffffffffffffffffffffffffffffffffff1681526020016000151581526020016000151581525090565b828054600181600116156101000203166002900490600052602060002090601f016020900481019282601f1061212157805160ff191683800117855561214f565b8280016001018555821561214f579182015b8281111561214e578251825591602001919060010190612133565b5b50905061215c9190612160565b5090565b61218291905b8082111561217e576000816000905550600101612166565b5090565b9056fea265627a7a72315820d1bfb503d5b833263eefce535bf7fef81d2abd658f052b92cd488c726488be5c64736f6c63430005100032",
  "source": "pragma solidity ^0.5.0;\n\ncontract Marketplace {\n    string public name;\n    uint public productCount = 0;\n    uint public farmerCount = 0;\n    uint public qtCount = 0;\n    mapping(uint => Product) public products;\n    mapping(uint => Farmer) public farmers;\n    mapping(uint => QTesting) public qtestings;\n\n    struct Farmer {\n        uint id;\n        string name;\n        string city;\n        uint phone;\n    }\n\n    struct QTesting {\n        uint id;\n        string name;\n        string city;\n    }\n\n    struct Product {\n        uint id;\n        uint farmerID;\n        string name;\n        string city;\n        uint price;\n        address payable owner;\n        bool purchased;\n        bool approved;\n    }\n\n    event FarmerRegisterd (\n        uint id,\n        string name,\n        string city,\n        uint phone\n    );\n\n    event QTestingRegisterd (\n        uint id,\n        string name,\n        string city\n    );\n\n    event ProductCreated(\n        uint id,\n        uint farmerID,\n        string name,\n        string city,\n        uint price,\n        address payable owner,\n        bool purchased,\n        bool approved\n    );\n\n    event ProductPurchased(\n        uint id,\n        uint farmerID,\n        string name,\n        string city,\n        uint price,\n        address payable owner,\n        bool purchased,\n        bool approved\n    );\n    \n    event ProductApproved(\n        uint id,\n        uint farmerID,\n        string name,\n        string city,\n        uint price,\n        address payable owner,\n        bool purchased,\n        bool approved\n    );\n\n    constructor() public {\n        name = \"Farmer Marketplace\";\n    }\n\n    function farmerRegister(string memory _name, uint _phone, string memory _city) public {\n        require(bytes(_name).length > 0);\n        require(bytes(_city).length > 0);\n        require(_phone > 0);\n        farmerCount ++;\n        farmers[farmerCount]=Farmer(farmerCount, _name, _city, _phone);\n        emit FarmerRegisterd(farmerCount, _name, _city, _phone);\n    }\n\n    function qtestingRegister(string memory _name, string memory _city) public {\n        require(bytes(_name).length > 0);\n        require(bytes(_city).length > 0);\n        qtCount ++;\n        qtestings[qtCount]=QTesting(qtCount, _name, _city);\n        emit QTestingRegisterd(qtCount, _name, _city);\n    }\n\n    function createProduct(uint _farmerid, string memory _name, uint _price, string memory _city) public {\n        // Require a valid name\n        require(bytes(_name).length > 0);\n        require(bytes(_city).length > 0);\n        // Require a valid price\n        require(_price > 0);\n        // Increment product count\n        productCount ++;\n        // Create the product\n        products[productCount] = Product(productCount, _farmerid, _name, _city, _price, msg.sender, false, false);\n        // Trigger an event\n        emit ProductCreated(productCount, _farmerid, _name, _city, _price, msg.sender, false, false);\n    }\n\n    function qtapproval(uint _id, uint _qtprice) public payable {\n        // Fetch the product\n        Product memory _product = products[_id];\n        // Make sure the product has a valid id\n        require(_product.id > 0 && _product.id <= productCount);\n        // Marked as Approved\n        _product.approved = true;\n        // Set price by Quallity tester\n        uint _rate = (_qtprice + _product.price)/2;\n        _product.price = _rate;\n        // Update the product\n        products[_id] = _product;\n        emit ProductApproved(productCount, _product.farmerID, _product.name, _product.city, _product.price, _product.owner, false, true);\n    }\n\n    function purchaseProduct(uint _id) public payable {\n            // Fetch the product\n        Product memory _product = products[_id];\n            // Fetch the owner\n        address payable _seller = _product.owner;\n            // Make sure the product has a valid id\n        require(_product.id > 0 && _product.id <= productCount);\n            // Require that there is enough Ether in the transaction\n        require(msg.value >= _product.price);\n            // Require that the product has not been purchased already\n        require(!_product.purchased);\n            // Require that the buyer is not the seller\n        require(_seller != msg.sender);\n            // Transfer ownership to the buyer\n        _product.owner = msg.sender;\n            // Mark as purchased\n        _product.purchased = true;\n            // Update the product\n        products[_id] = _product;\n            // Pay the seller by sending them Ether\n        address(_seller).transfer(msg.value);\n            // Trigger an event\n        emit ProductPurchased(productCount, _product.farmerID, _product.name, _product.city, _product.price, msg.sender, true, true);\n    }\n}\n",
  "sourcePath": "C:/Users/Mati/Desktop/Farmers_Marketplace/src/contracts/Marketplace.sol",
  "compiler": {
    "name": "solc",
    "version": "0.5.16+commit.9c3226ce.Emscripten.clang"
  },
  "schemaVersion": "3.4.1",
  "updatedAt": "2021-08-06T13:18:56.651Z",
  "networkType": "ethereum",
  "devdoc": {
    "methods": {}
  },
  "userdoc": {
    "methods": {}
  }
}